{
  "contractName": "SolnSquareVerifier",
  "abi": [
    {
      "inputs": [
        {
          "internalType": "address",
          "name": "verifierContractAddress",
          "type": "address"
        }
      ],
      "payable": false,
      "stateMutability": "nonpayable",
      "type": "constructor"
    },
    {
      "anonymous": false,
      "inputs": [
        {
          "indexed": true,
          "internalType": "address",
          "name": "owner",
          "type": "address"
        },
        {
          "indexed": true,
          "internalType": "address",
          "name": "approved",
          "type": "address"
        },
        {
          "indexed": true,
          "internalType": "uint256",
          "name": "tokenId",
          "type": "uint256"
        }
      ],
      "name": "Approval",
      "type": "event"
    },
    {
      "anonymous": false,
      "inputs": [
        {
          "indexed": true,
          "internalType": "address",
          "name": "owner",
          "type": "address"
        },
        {
          "indexed": true,
          "internalType": "address",
          "name": "operator",
          "type": "address"
        },
        {
          "indexed": false,
          "internalType": "bool",
          "name": "approved",
          "type": "bool"
        }
      ],
      "name": "ApprovalForAll",
      "type": "event"
    },
    {
      "anonymous": false,
      "inputs": [
        {
          "indexed": false,
          "internalType": "address",
          "name": "newOwner",
          "type": "address"
        }
      ],
      "name": "OwnershipTransfered",
      "type": "event"
    },
    {
      "anonymous": false,
      "inputs": [
        {
          "indexed": false,
          "internalType": "address",
          "name": "caller",
          "type": "address"
        }
      ],
      "name": "Paused",
      "type": "event"
    },
    {
      "anonymous": false,
      "inputs": [
        {
          "indexed": false,
          "internalType": "uint256",
          "name": "",
          "type": "uint256"
        },
        {
          "indexed": false,
          "internalType": "address",
          "name": "",
          "type": "address"
        }
      ],
      "name": "SolutionAdded",
      "type": "event"
    },
    {
      "anonymous": false,
      "inputs": [
        {
          "indexed": true,
          "internalType": "address",
          "name": "from",
          "type": "address"
        },
        {
          "indexed": true,
          "internalType": "address",
          "name": "to",
          "type": "address"
        },
        {
          "indexed": true,
          "internalType": "uint256",
          "name": "tokenId",
          "type": "uint256"
        }
      ],
      "name": "Transfer",
      "type": "event"
    },
    {
      "anonymous": false,
      "inputs": [
        {
          "indexed": false,
          "internalType": "address",
          "name": "caller",
          "type": "address"
        }
      ],
      "name": "Unpaused",
      "type": "event"
    },
    {
      "constant": false,
      "inputs": [
        {
          "internalType": "bytes32",
          "name": "_myid",
          "type": "bytes32"
        },
        {
          "internalType": "string",
          "name": "_result",
          "type": "string"
        }
      ],
      "name": "__callback",
      "outputs": [],
      "payable": false,
      "stateMutability": "nonpayable",
      "type": "function"
    },
    {
      "constant": false,
      "inputs": [
        {
          "internalType": "bytes32",
          "name": "_myid",
          "type": "bytes32"
        },
        {
          "internalType": "string",
          "name": "_result",
          "type": "string"
        },
        {
          "internalType": "bytes",
          "name": "_proof",
          "type": "bytes"
        }
      ],
      "name": "__callback",
      "outputs": [],
      "payable": false,
      "stateMutability": "nonpayable",
      "type": "function"
    },
    {
      "constant": false,
      "inputs": [
        {
          "internalType": "address",
          "name": "to",
          "type": "address"
        },
        {
          "internalType": "uint256",
          "name": "tokenId",
          "type": "uint256"
        }
      ],
      "name": "approve",
      "outputs": [],
      "payable": false,
      "stateMutability": "nonpayable",
      "type": "function"
    },
    {
      "constant": true,
      "inputs": [
        {
          "internalType": "address",
          "name": "owner",
          "type": "address"
        }
      ],
      "name": "balanceOf",
      "outputs": [
        {
          "internalType": "uint256",
          "name": "",
          "type": "uint256"
        }
      ],
      "payable": false,
      "stateMutability": "view",
      "type": "function"
    },
    {
      "constant": true,
      "inputs": [
        {
          "internalType": "uint256",
          "name": "tokenId",
          "type": "uint256"
        }
      ],
      "name": "getApproved",
      "outputs": [
        {
          "internalType": "address",
          "name": "",
          "type": "address"
        }
      ],
      "payable": false,
      "stateMutability": "view",
      "type": "function"
    },
    {
      "constant": true,
      "inputs": [],
      "name": "getBaseTokenURI",
      "outputs": [
        {
          "internalType": "string",
          "name": "",
          "type": "string"
        }
      ],
      "payable": false,
      "stateMutability": "view",
      "type": "function"
    },
    {
      "constant": true,
      "inputs": [],
      "name": "getName",
      "outputs": [
        {
          "internalType": "string",
          "name": "",
          "type": "string"
        }
      ],
      "payable": false,
      "stateMutability": "view",
      "type": "function"
    },
    {
      "constant": true,
      "inputs": [],
      "name": "getOwner",
      "outputs": [
        {
          "internalType": "address",
          "name": "",
          "type": "address"
        }
      ],
      "payable": false,
      "stateMutability": "view",
      "type": "function"
    },
    {
      "constant": true,
      "inputs": [],
      "name": "getSymbol",
      "outputs": [
        {
          "internalType": "string",
          "name": "",
          "type": "string"
        }
      ],
      "payable": false,
      "stateMutability": "view",
      "type": "function"
    },
    {
      "constant": true,
      "inputs": [
        {
          "internalType": "address",
          "name": "owner",
          "type": "address"
        },
        {
          "internalType": "address",
          "name": "operator",
          "type": "address"
        }
      ],
      "name": "isApprovedForAll",
      "outputs": [
        {
          "internalType": "bool",
          "name": "",
          "type": "bool"
        }
      ],
      "payable": false,
      "stateMutability": "view",
      "type": "function"
    },
    {
      "constant": false,
      "inputs": [
        {
          "internalType": "address",
          "name": "to",
          "type": "address"
        },
        {
          "internalType": "uint256",
          "name": "tokenId",
          "type": "uint256"
        }
      ],
      "name": "mint",
      "outputs": [
        {
          "internalType": "bool",
          "name": "",
          "type": "bool"
        }
      ],
      "payable": false,
      "stateMutability": "nonpayable",
      "type": "function"
    },
    {
      "constant": true,
      "inputs": [
        {
          "internalType": "uint256",
          "name": "tokenId",
          "type": "uint256"
        }
      ],
      "name": "ownerOf",
      "outputs": [
        {
          "internalType": "address",
          "name": "",
          "type": "address"
        }
      ],
      "payable": false,
      "stateMutability": "view",
      "type": "function"
    },
    {
      "constant": false,
      "inputs": [
        {
          "internalType": "address",
          "name": "from",
          "type": "address"
        },
        {
          "internalType": "address",
          "name": "to",
          "type": "address"
        },
        {
          "internalType": "uint256",
          "name": "tokenId",
          "type": "uint256"
        }
      ],
      "name": "safeTransferFrom",
      "outputs": [],
      "payable": false,
      "stateMutability": "nonpayable",
      "type": "function"
    },
    {
      "constant": false,
      "inputs": [
        {
          "internalType": "address",
          "name": "from",
          "type": "address"
        },
        {
          "internalType": "address",
          "name": "to",
          "type": "address"
        },
        {
          "internalType": "uint256",
          "name": "tokenId",
          "type": "uint256"
        },
        {
          "internalType": "bytes",
          "name": "_data",
          "type": "bytes"
        }
      ],
      "name": "safeTransferFrom",
      "outputs": [],
      "payable": false,
      "stateMutability": "nonpayable",
      "type": "function"
    },
    {
      "constant": false,
      "inputs": [
        {
          "internalType": "address",
          "name": "to",
          "type": "address"
        },
        {
          "internalType": "bool",
          "name": "approved",
          "type": "bool"
        }
      ],
      "name": "setApprovalForAll",
      "outputs": [],
      "payable": false,
      "stateMutability": "nonpayable",
      "type": "function"
    },
    {
      "constant": false,
      "inputs": [
        {
          "internalType": "bool",
          "name": "value",
          "type": "bool"
        }
      ],
      "name": "setPause",
      "outputs": [],
      "payable": false,
      "stateMutability": "nonpayable",
      "type": "function"
    },
    {
      "constant": true,
      "inputs": [
        {
          "internalType": "bytes4",
          "name": "interfaceId",
          "type": "bytes4"
        }
      ],
      "name": "supportsInterface",
      "outputs": [
        {
          "internalType": "bool",
          "name": "",
          "type": "bool"
        }
      ],
      "payable": false,
      "stateMutability": "view",
      "type": "function"
    },
    {
      "constant": true,
      "inputs": [
        {
          "internalType": "uint256",
          "name": "index",
          "type": "uint256"
        }
      ],
      "name": "tokenByIndex",
      "outputs": [
        {
          "internalType": "uint256",
          "name": "",
          "type": "uint256"
        }
      ],
      "payable": false,
      "stateMutability": "view",
      "type": "function"
    },
    {
      "constant": true,
      "inputs": [
        {
          "internalType": "address",
          "name": "owner",
          "type": "address"
        },
        {
          "internalType": "uint256",
          "name": "index",
          "type": "uint256"
        }
      ],
      "name": "tokenOfOwnerByIndex",
      "outputs": [
        {
          "internalType": "uint256",
          "name": "",
          "type": "uint256"
        }
      ],
      "payable": false,
      "stateMutability": "view",
      "type": "function"
    },
    {
      "constant": true,
      "inputs": [
        {
          "internalType": "uint256",
          "name": "tokenId",
          "type": "uint256"
        }
      ],
      "name": "tokenURI",
      "outputs": [
        {
          "internalType": "string",
          "name": "",
          "type": "string"
        }
      ],
      "payable": false,
      "stateMutability": "view",
      "type": "function"
    },
    {
      "constant": true,
      "inputs": [],
      "name": "totalSupply",
      "outputs": [
        {
          "internalType": "uint256",
          "name": "",
          "type": "uint256"
        }
      ],
      "payable": false,
      "stateMutability": "view",
      "type": "function"
    },
    {
      "constant": false,
      "inputs": [
        {
          "internalType": "address",
          "name": "from",
          "type": "address"
        },
        {
          "internalType": "address",
          "name": "to",
          "type": "address"
        },
        {
          "internalType": "uint256",
          "name": "tokenId",
          "type": "uint256"
        }
      ],
      "name": "transferFrom",
      "outputs": [],
      "payable": false,
      "stateMutability": "nonpayable",
      "type": "function"
    },
    {
      "constant": false,
      "inputs": [
        {
          "internalType": "address",
          "name": "newOwner",
          "type": "address"
        }
      ],
      "name": "transferOwnership",
      "outputs": [],
      "payable": false,
      "stateMutability": "nonpayable",
      "type": "function"
    },
    {
      "constant": false,
      "inputs": [
        {
          "internalType": "address",
          "name": "solutionAddress",
          "type": "address"
        }
      ],
      "name": "addSolution",
      "outputs": [
        {
          "internalType": "uint256",
          "name": "",
          "type": "uint256"
        }
      ],
      "payable": false,
      "stateMutability": "nonpayable",
      "type": "function"
    }
  ],
  "bytecode": "0x608060405260006014553480156200001657600080fd5b50604051620034fb380380620034fb83398181016040526200003c9190810190620003d2565b6040518060400160405280600a81526020017f4d494e484f434f494e53000000000000000000000000000000000000000000008152506040518060400160405280600381526020017f4d4e4300000000000000000000000000000000000000000000000000000000008152506040518060600160405280603f8152602001620034bc603f9139336000806101000a81548173ffffffffffffffffffffffffffffffffffffffff021916908373ffffffffffffffffffffffffffffffffffffffff1602179055507f9736aeb40a8f30a5c076a9897428fdf7ec0e909c96dce63533664c9b5c835da66000809054906101000a900473ffffffffffffffffffffffffffffffffffffffff166040516200015491906200040f565b60405180910390a160008060146101000a81548160ff0219169083151502179055506200018e6301ffc9a760e01b6200026c60201b60201c565b620001a66380ac58cd60e01b6200026c60201b60201c565b620001be63780e9d6360e01b6200026c60201b60201c565b82600f9080519060200190620001d69291906200030c565b508160109080519060200190620001ef9291906200030c565b508060119080519060200190620002089291906200030c565b5062000221635b5e139f60e01b6200026c60201b60201c565b50505080601360006101000a81548173ffffffffffffffffffffffffffffffffffffffff021916908373ffffffffffffffffffffffffffffffffffffffff160217905550506200047a565b63ffffffff60e01b817bffffffffffffffffffffffffffffffffffffffffffffffffffffffff19161415620002a057600080fd5b6001806000837bffffffffffffffffffffffffffffffffffffffffffffffffffffffff19167bffffffffffffffffffffffffffffffffffffffffffffffffffffffff1916815260200190815260200160002060006101000a81548160ff02191690831515021790555050565b828054600181600116156101000203166002900490600052602060002090601f016020900481019282601f106200034f57805160ff191683800117855562000380565b8280016001018555821562000380579182015b828111156200037f57825182559160200191906001019062000362565b5b5090506200038f919062000393565b5090565b620003b891905b80821115620003b45760008160009055506001016200039a565b5090565b90565b600081519050620003cc8162000460565b92915050565b600060208284031215620003e557600080fd5b6000620003f584828501620003bb565b91505092915050565b62000409816200042c565b82525050565b6000602082019050620004266000830184620003fe565b92915050565b6000620004398262000440565b9050919050565b600073ffffffffffffffffffffffffffffffffffffffff82169050919050565b6200046b816200042c565b81146200047757600080fd5b50565b613032806200048a6000396000f3fe608060405234801561001057600080fd5b50600436106101585760003560e01c80634f6ccce7116100c3578063b88d4fde1161007c578063b88d4fde146103fd578063bdc32be014610419578063bedb86fb14610437578063c87b56dd14610453578063e985e9c514610483578063f2fde38b146104b357610158565b80634f6ccce7146103035780636352211e1461033357806370a0823114610363578063832e169514610393578063893d20e8146103c3578063a22cb465146103e157610158565b806323b872dd1161011557806323b872dd1461023357806327dc297e1461024f5780632f745c591461026b57806338bbfa501461029b57806340c10f19146102b757806342842e0e146102e757610158565b806301ffc9a71461015d578063081812fc1461018d578063095ea7b3146101bd57806315070401146101d957806317d7de7c146101f757806318160ddd14610215575b600080fd5b61017760048036036101729190810190612794565b6104cf565b6040516101849190612c17565b60405180910390f35b6101a760048036036101a291908101906127e6565b610537565b6040516101b49190612b95565b60405180910390f35b6101d760048036036101d2919081019061265c565b610574565b005b6101e161075d565b6040516101ee9190612c32565b60405180910390f35b6101ff6107ff565b60405161020c9190612c32565b60405180910390f35b61021d6108a1565b60405161022a9190612d74565b60405180910390f35b61024d60048036036102489190810190612556565b6108ae565b005b610269600480360361026491908101906126c1565b6108d1565b005b6102856004803603610280919081019061265c565b610914565b6040516102929190612d74565b60405180910390f35b6102b560048036036102b09190810190612715565b610987565b005b6102d160048036036102cc919081019061265c565b61098c565b6040516102de9190612c17565b60405180910390f35b61030160048036036102fc9190810190612556565b610a3a565b005b61031d600480360361031891908101906127e6565b610a5a565b60405161032a9190612d74565b60405180910390f35b61034d600480360361034891908101906127e6565b610a8e565b60405161035a9190612b95565b60405180910390f35b61037d600480360361037891908101906124f1565b610acb565b60405161038a9190612d74565b60405180910390f35b6103ad60048036036103a891908101906124f1565b610b1b565b6040516103ba9190612d74565b60405180910390f35b6103cb610c34565b6040516103d89190612b95565b60405180910390f35b6103fb60048036036103f69190810190612620565b610c5d565b005b610417600480360361041291908101906125a5565b610d93565b005b610421610db9565b60405161042e9190612c32565b60405180910390f35b610451600480360361044c9190810190612698565b610e5b565b005b61046d600480360361046891908101906127e6565b610f90565b60405161047a9190612c32565b60405180910390f35b61049d6004803603610498919081019061251a565b611057565b6040516104aa9190612c17565b60405180910390f35b6104cd60048036036104c891908101906124f1565b6110eb565b005b600060016000837bffffffffffffffffffffffffffffffffffffffffffffffffffffffff19167bffffffffffffffffffffffffffffffffffffffffffffffffffffffff1916815260200190815260200160002060009054906101000a900460ff169050919050565b60006003600083815260200190815260200160002060009054906101000a900473ffffffffffffffffffffffffffffffffffffffff169050919050565b8173ffffffffffffffffffffffffffffffffffffffff163373ffffffffffffffffffffffffffffffffffffffff1614156105e3576040517f08c379a00000000000000000000000000000000000000000000000000000000081526004016105da90612cd4565b60405180910390fd5b6105eb610c34565b73ffffffffffffffffffffffffffffffffffffffff163373ffffffffffffffffffffffffffffffffffffffff16148061062a57506106293383611057565b5b610669576040517f08c379a000000000000000000000000000000000000000000000000000000000815260040161066090612d54565b60405180910390fd5b6001600560003373ffffffffffffffffffffffffffffffffffffffff1673ffffffffffffffffffffffffffffffffffffffff16815260200190815260200160002060008473ffffffffffffffffffffffffffffffffffffffff1673ffffffffffffffffffffffffffffffffffffffff16815260200190815260200160002060006101000a81548160ff021916908315150217905550808273ffffffffffffffffffffffffffffffffffffffff163373ffffffffffffffffffffffffffffffffffffffff167f8c5be1e5ebec7d5bd14f71427d1e84f3dd0314c0f7b2291e5b200ac8c7c3b92560405160405180910390a45050565b606060108054600181600116156101000203166002900480601f0160208091040260200160405190810160405280929190818152602001828054600181600116156101000203166002900480156107f55780601f106107ca576101008083540402835291602001916107f5565b820191906000526020600020905b8154815290600101906020018083116107d857829003601f168201915b5050505050905090565b6060600f8054600181600116156101000203166002900480601f0160208091040260200160405190810160405280929190818152602001828054600181600116156101000203166002900480156108975780601f1061086c57610100808354040283529160200191610897565b820191906000526020600020905b81548152906001019060200180831161087a57829003601f168201915b5050505050905090565b6000600880549050905090565b6108b83382611264565b6108c157600080fd5b6108cc8383836112f9565b505050565b610910828260006040519080825280601f01601f19166020018201604052801561090a5781602001600182028038833980820191505090505b50610987565b5050565b600061091f83610acb565b821061092a57600080fd5b600660008473ffffffffffffffffffffffffffffffffffffffff1673ffffffffffffffffffffffffffffffffffffffff168152602001908152602001600020828154811061097457fe5b9060005260206000200154905092915050565b505050565b60008060009054906101000a900473ffffffffffffffffffffffffffffffffffffffff1673ffffffffffffffffffffffffffffffffffffffff163373ffffffffffffffffffffffffffffffffffffffff1614610a1d576040517f08c379a0000000000000000000000000000000000000000000000000000000008152600401610a1490612d14565b60405180910390fd5b610a27838361131d565b610a308261133e565b6001905092915050565b610a5583838360405180602001604052806000815250610d93565b505050565b6000610a646108a1565b8210610a6f57600080fd5b60088281548110610a7c57fe5b90600052602060002001549050919050565b60006002600083815260200190815260200160002060009054906101000a900473ffffffffffffffffffffffffffffffffffffffff169050919050565b6000610b14600460008473ffffffffffffffffffffffffffffffffffffffff1673ffffffffffffffffffffffffffffffffffffffff16815260200190815260200160002061145c565b9050919050565b6000601460008154809291906001019190505550610b376122ca565b604051806040016040528060145481526020018473ffffffffffffffffffffffffffffffffffffffff168152509050601581908060018154018082558091505090600182039060005260206000209060020201600090919290919091506000820151816000015560208201518160010160006101000a81548173ffffffffffffffffffffffffffffffffffffffff021916908373ffffffffffffffffffffffffffffffffffffffff1602179055505050507f078793128cefb19aac38a33f9e5df39f67716907f6d747e8065545699e0b2b8d81600001518260200151604051610c21929190612d8f565b60405180910390a1601454915050919050565b60008060009054906101000a900473ffffffffffffffffffffffffffffffffffffffff16905090565b3373ffffffffffffffffffffffffffffffffffffffff168273ffffffffffffffffffffffffffffffffffffffff161415610c9657600080fd5b80600560003373ffffffffffffffffffffffffffffffffffffffff1673ffffffffffffffffffffffffffffffffffffffff16815260200190815260200160002060008473ffffffffffffffffffffffffffffffffffffffff1673ffffffffffffffffffffffffffffffffffffffff16815260200190815260200160002060006101000a81548160ff0219169083151502179055508173ffffffffffffffffffffffffffffffffffffffff163373ffffffffffffffffffffffffffffffffffffffff167f17307eab39ab6107e8899845ad3d59bd9653f200f220920489ca2b5937696c3183604051610d879190612c17565b60405180910390a35050565b610d9e8484846108ae565b610daa8484848461146a565b610db357600080fd5b50505050565b606060118054600181600116156101000203166002900480601f016020809104026020016040519081016040528092919081815260200182805460018160011615610100020316600290048015610e515780601f10610e2657610100808354040283529160200191610e51565b820191906000526020600020905b815481529060010190602001808311610e3457829003601f168201915b5050505050905090565b6000809054906101000a900473ffffffffffffffffffffffffffffffffffffffff1673ffffffffffffffffffffffffffffffffffffffff163373ffffffffffffffffffffffffffffffffffffffff1614610eea576040517f08c379a0000000000000000000000000000000000000000000000000000000008152600401610ee190612d14565b60405180910390fd5b80600060146101000a81548160ff021916908315150217905550600060149054906101000a900460ff1615610f55577f62e78cea01bee320cd4e420270b5ea74000d11b0c9f74754ebdbfc544b05a25833604051610f489190612bb0565b60405180910390a1610f8d565b7f5db9ee0a495bf2e6ff9c91a7834c1ba4fdd244a5e8aa4e537bd38aeae4b073aa33604051610f849190612bb0565b60405180910390a15b50565b6060610f9b82611581565b610fa457600080fd5b601260008381526020019081526020016000208054600181600116156101000203166002900480601f01602080910402602001604051908101604052809291908181526020018280546001816001161561010002031660029004801561104b5780601f106110205761010080835404028352916020019161104b565b820191906000526020600020905b81548152906001019060200180831161102e57829003601f168201915b50505050509050919050565b6000600560008473ffffffffffffffffffffffffffffffffffffffff1673ffffffffffffffffffffffffffffffffffffffff16815260200190815260200160002060008373ffffffffffffffffffffffffffffffffffffffff1673ffffffffffffffffffffffffffffffffffffffff16815260200190815260200160002060009054906101000a900460ff16905092915050565b6000809054906101000a900473ffffffffffffffffffffffffffffffffffffffff1673ffffffffffffffffffffffffffffffffffffffff163373ffffffffffffffffffffffffffffffffffffffff161461117a576040517f08c379a000000000000000000000000000000000000000000000000000000000815260040161117190612d14565b60405180910390fd5b600073ffffffffffffffffffffffffffffffffffffffff163373ffffffffffffffffffffffffffffffffffffffff1614156111ea576040517f08c379a00000000000000000000000000000000000000000000000000000000081526004016111e190612c74565b60405180910390fd5b806000806101000a81548173ffffffffffffffffffffffffffffffffffffffff021916908373ffffffffffffffffffffffffffffffffffffffff1602179055507f9736aeb40a8f30a5c076a9897428fdf7ec0e909c96dce63533664c9b5c835da6816040516112599190612b95565b60405180910390a150565b60008061127083610a8e565b90508073ffffffffffffffffffffffffffffffffffffffff168473ffffffffffffffffffffffffffffffffffffffff1614806112df57508373ffffffffffffffffffffffffffffffffffffffff166112c784610537565b73ffffffffffffffffffffffffffffffffffffffff16145b806112f057506112ef8185611057565b5b91505092915050565b6113048383836115f3565b61130e838261184d565b61131882826119eb565b505050565b6113278282611ab2565b61133182826119eb565b61133a81611c64565b5050565b61134781611581565b611386576040517f08c379a000000000000000000000000000000000000000000000000000000000815260040161137d90612d34565b60405180910390fd5b61143260118054600181600116156101000203166002900480601f01602080910402602001604051908101604052809291908181526020018280546001816001161561010002031660029004801561141f5780601f106113f45761010080835404028352916020019161141f565b820191906000526020600020905b81548152906001019060200180831161140257829003601f168201915b505050505061142d83611cb0565b611ddd565b6012600083815260200190815260200160002090805190602001906114589291906122fa565b5050565b600081600001549050919050565b600061148b8473ffffffffffffffffffffffffffffffffffffffff16611e21565b6114985760019050611579565b60008473ffffffffffffffffffffffffffffffffffffffff1663150b7a02338887876040518563ffffffff1660e01b81526004016114d99493929190612bcb565b602060405180830381600087803b1580156114f357600080fd5b505af1158015611507573d6000803e3d6000fd5b505050506040513d601f19601f8201168201806040525061152b91908101906127bd565b905063150b7a0260e01b7bffffffffffffffffffffffffffffffffffffffffffffffffffffffff1916817bffffffffffffffffffffffffffffffffffffffffffffffffffffffff1916149150505b949350505050565b6000806002600084815260200190815260200160002060009054906101000a900473ffffffffffffffffffffffffffffffffffffffff169050600073ffffffffffffffffffffffffffffffffffffffff168173ffffffffffffffffffffffffffffffffffffffff161415915050919050565b8273ffffffffffffffffffffffffffffffffffffffff166002600083815260200190815260200160002060009054906101000a900473ffffffffffffffffffffffffffffffffffffffff1673ffffffffffffffffffffffffffffffffffffffff1614611694576040517f08c379a000000000000000000000000000000000000000000000000000000000815260040161168b90612cb4565b60405180910390fd5b600073ffffffffffffffffffffffffffffffffffffffff168273ffffffffffffffffffffffffffffffffffffffff161415611704576040517f08c379a00000000000000000000000000000000000000000000000000000000081526004016116fb90612cf4565b60405180910390fd5b61170d81611e6c565b816002600083815260200190815260200160002060006101000a81548173ffffffffffffffffffffffffffffffffffffffff021916908373ffffffffffffffffffffffffffffffffffffffff1602179055506117a6600460008573ffffffffffffffffffffffffffffffffffffffff1673ffffffffffffffffffffffffffffffffffffffff168152602001908152602001600020611f2a565b6117ed600460008473ffffffffffffffffffffffffffffffffffffffff1673ffffffffffffffffffffffffffffffffffffffff168152602001908152602001600020611f4d565b808273ffffffffffffffffffffffffffffffffffffffff168473ffffffffffffffffffffffffffffffffffffffff167fddf252ad1be2c89b69c2b068fc378daa952ba7f163c4a11628f55a4df523b3ef60405160405180910390a4505050565b60006118a56001600660008673ffffffffffffffffffffffffffffffffffffffff1673ffffffffffffffffffffffffffffffffffffffff16815260200190815260200160002080549050611f6390919063ffffffff16565b9050600060076000848152602001908152602001600020549050818114611992576000600660008673ffffffffffffffffffffffffffffffffffffffff1673ffffffffffffffffffffffffffffffffffffffff168152602001908152602001600020838154811061191257fe5b9060005260206000200154905080600660008773ffffffffffffffffffffffffffffffffffffffff1673ffffffffffffffffffffffffffffffffffffffff168152602001908152602001600020838154811061196a57fe5b9060005260206000200181905550816007600083815260200190815260200160002081905550505b600660008573ffffffffffffffffffffffffffffffffffffffff1673ffffffffffffffffffffffffffffffffffffffff1681526020019081526020016000208054809190600190036119e4919061237a565b5050505050565b600660008373ffffffffffffffffffffffffffffffffffffffff1673ffffffffffffffffffffffffffffffffffffffff168152602001908152602001600020805490506007600083815260200190815260200160002081905550600660008373ffffffffffffffffffffffffffffffffffffffff1673ffffffffffffffffffffffffffffffffffffffff1681526020019081526020016000208190806001815401808255809150509060018203906000526020600020016000909192909190915055505050565b611abb81611581565b15611afb576040517f08c379a0000000000000000000000000000000000000000000000000000000008152600401611af290612c94565b60405180910390fd5b600073ffffffffffffffffffffffffffffffffffffffff168273ffffffffffffffffffffffffffffffffffffffff161415611b6b576040517f08c379a0000000000000000000000000000000000000000000000000000000008152600401611b6290612c54565b60405180910390fd5b816002600083815260200190815260200160002060006101000a81548173ffffffffffffffffffffffffffffffffffffffff021916908373ffffffffffffffffffffffffffffffffffffffff160217905550611c04600460008473ffffffffffffffffffffffffffffffffffffffff1673ffffffffffffffffffffffffffffffffffffffff168152602001908152602001600020611f4d565b808273ffffffffffffffffffffffffffffffffffffffff16600073ffffffffffffffffffffffffffffffffffffffff167fddf252ad1be2c89b69c2b068fc378daa952ba7f163c4a11628f55a4df523b3ef60405160405180910390a45050565b6008805490506009600083815260200190815260200160002081905550600881908060018154018082558091505090600182039060005260206000200160009091929091909150555050565b60606000821415611cf8576040518060400160405280600181526020017f30000000000000000000000000000000000000000000000000000000000000008152509050611dd8565b600082905060005b60008214611d22578080600101915050600a8281611d1a57fe5b049150611d00565b6060816040519080825280601f01601f191660200182016040528015611d575781602001600182028038833980820191505090505b50905060006001830390505b60008614611dd057600a8681611d7557fe5b0660300160f81b82828060019003935081518110611d8f57fe5b60200101907effffffffffffffffffffffffffffffffffffffffffffffffffffffffffffff1916908160001a905350600a8681611dc857fe5b049550611d63565b819450505050505b919050565b6060611e198383604051806020016040528060008152506040518060200160405280600081525060405180602001604052806000815250611fad565b905092915050565b60008060007fc5d2460186f7233c927e7db2dcc703c0e500b653ca82273b7bfad8045d85a47060001b9050833f9150808214158015611e6357506000801b8214155b92505050919050565b600073ffffffffffffffffffffffffffffffffffffffff166003600083815260200190815260200160002060009054906101000a900473ffffffffffffffffffffffffffffffffffffffff1673ffffffffffffffffffffffffffffffffffffffff1614611f275760006003600083815260200190815260200160002060006101000a81548173ffffffffffffffffffffffffffffffffffffffff021916908373ffffffffffffffffffffffffffffffffffffffff1602179055505b50565b611f4260018260000154611f6390919063ffffffff16565b816000018190555050565b6001816000016000828254019250508190555050565b6000611fa583836040518060400160405280601e81526020017f536166654d6174683a207375627472616374696f6e206f766572666c6f77000081525061226f565b905092915050565b6060808690506060869050606086905060608690506060869050606081518351855187518951010101016040519080825280601f01601f1916602001820160405280156120095781602001600182028038833980820191505090505b509050606081905060008090506000809050600090505b885181101561208e5788818151811061203557fe5b602001015160f81c60f81b83838060010194508151811061205257fe5b60200101907effffffffffffffffffffffffffffffffffffffffffffffffffffffffffffff1916908160001a9053508080600101915050612020565b600090505b8751811015612101578781815181106120a857fe5b602001015160f81c60f81b8383806001019450815181106120c557fe5b60200101907effffffffffffffffffffffffffffffffffffffffffffffffffffffffffffff1916908160001a9053508080600101915050612093565b600090505b86518110156121745786818151811061211b57fe5b602001015160f81c60f81b83838060010194508151811061213857fe5b60200101907effffffffffffffffffffffffffffffffffffffffffffffffffffffffffffff1916908160001a9053508080600101915050612106565b600090505b85518110156121e75785818151811061218e57fe5b602001015160f81c60f81b8383806001019450815181106121ab57fe5b60200101907effffffffffffffffffffffffffffffffffffffffffffffffffffffffffffff1916908160001a9053508080600101915050612179565b600090505b845181101561225a5784818151811061220157fe5b602001015160f81c60f81b83838060010194508151811061221e57fe5b60200101907effffffffffffffffffffffffffffffffffffffffffffffffffffffffffffff1916908160001a90535080806001019150506121ec565b82995050505050505050505095945050505050565b60008383111582906122b7576040517f08c379a00000000000000000000000000000000000000000000000000000000081526004016122ae9190612c32565b60405180910390fd5b5060008385039050809150509392505050565b604051806040016040528060008152602001600073ffffffffffffffffffffffffffffffffffffffff1681525090565b828054600181600116156101000203166002900490600052602060002090601f016020900481019282601f1061233b57805160ff1916838001178555612369565b82800160010185558215612369579182015b8281111561236857825182559160200191906001019061234d565b5b50905061237691906123a6565b5090565b8154818355818111156123a1578183600052602060002091820191016123a091906123a6565b5b505050565b6123c891905b808211156123c45760008160009055506001016123ac565b5090565b90565b6000813590506123da81612f7c565b92915050565b6000813590506123ef81612f93565b92915050565b60008135905061240481612faa565b92915050565b60008135905061241981612fc1565b92915050565b60008151905061242e81612fc1565b92915050565b600082601f83011261244557600080fd5b813561245861245382612de5565b612db8565b9150808252602083016020830185838301111561247457600080fd5b61247f838284612f29565b50505092915050565b600082601f83011261249957600080fd5b81356124ac6124a782612e11565b612db8565b915080825260208301602083018583830111156124c857600080fd5b6124d3838284612f29565b50505092915050565b6000813590506124eb81612fd8565b92915050565b60006020828403121561250357600080fd5b6000612511848285016123cb565b91505092915050565b6000806040838503121561252d57600080fd5b600061253b858286016123cb565b925050602061254c858286016123cb565b9150509250929050565b60008060006060848603121561256b57600080fd5b6000612579868287016123cb565b935050602061258a868287016123cb565b925050604061259b868287016124dc565b9150509250925092565b600080600080608085870312156125bb57600080fd5b60006125c9878288016123cb565b94505060206125da878288016123cb565b93505060406125eb878288016124dc565b925050606085013567ffffffffffffffff81111561260857600080fd5b61261487828801612434565b91505092959194509250565b6000806040838503121561263357600080fd5b6000612641858286016123cb565b9250506020612652858286016123e0565b9150509250929050565b6000806040838503121561266f57600080fd5b600061267d858286016123cb565b925050602061268e858286016124dc565b9150509250929050565b6000602082840312156126aa57600080fd5b60006126b8848285016123e0565b91505092915050565b600080604083850312156126d457600080fd5b60006126e2858286016123f5565b925050602083013567ffffffffffffffff8111156126ff57600080fd5b61270b85828601612488565b9150509250929050565b60008060006060848603121561272a57600080fd5b6000612738868287016123f5565b935050602084013567ffffffffffffffff81111561275557600080fd5b61276186828701612488565b925050604084013567ffffffffffffffff81111561277e57600080fd5b61278a86828701612434565b9150509250925092565b6000602082840312156127a657600080fd5b60006127b48482850161240a565b91505092915050565b6000602082840312156127cf57600080fd5b60006127dd8482850161241f565b91505092915050565b6000602082840312156127f857600080fd5b6000612806848285016124dc565b91505092915050565b61281881612ef3565b82525050565b61282781612e75565b82525050565b61283681612e87565b82525050565b600061284782612e3d565b6128518185612e53565b9350612861818560208601612f38565b61286a81612f6b565b840191505092915050565b600061288082612e48565b61288a8185612e64565b935061289a818560208601612f38565b6128a381612f6b565b840191505092915050565b60006128bb600f83612e64565b91507f496e76616c6964206164647265737300000000000000000000000000000000006000830152602082019050919050565b60006128fb601b83612e64565b91507f43616c6c65722061646472657373206d757374206265207265616c00000000006000830152602082019050919050565b600061293b601483612e64565b91507f546f6b656e20616c7265616479206578697374730000000000000000000000006000830152602082019050919050565b600061297b602583612e64565b91507f546f6b656e20646f6573206e6f742062656c6f6e6720746f2066726f6d20616460008301527f64726573730000000000000000000000000000000000000000000000000000006020830152604082019050919050565b60006129e1602b83612e64565b91507f446f206e6f74206e65656420746f2067697665207065726d697373696f6e206660008301527f6f72207468656d73656c660000000000000000000000000000000000000000006020830152604082019050919050565b6000612a47601583612e64565b91507f4164647265737320746f20697320696e76616c696400000000000000000000006000830152602082019050919050565b6000612a87601c83612e64565b91507f43616c6c6572206973206e6f7420636f6e7472616374206f776e6572000000006000830152602082019050919050565b6000612ac7601683612e64565b91507f546f6b656e496420646f6573206e6f74206578697374000000000000000000006000830152602082019050919050565b6000612b07604a83612e64565b91507f53656e646572206973206e6f742074686520636f6e7472616374206f776e657260008301527f20616e64206f70657261746f72206973417070726f766564466f72416c6c206960208301527f73206e6f742074727565000000000000000000000000000000000000000000006040830152606082019050919050565b612b8f81612ee9565b82525050565b6000602082019050612baa600083018461281e565b92915050565b6000602082019050612bc5600083018461280f565b92915050565b6000608082019050612be0600083018761280f565b612bed602083018661281e565b612bfa6040830185612b86565b8181036060830152612c0c818461283c565b905095945050505050565b6000602082019050612c2c600083018461282d565b92915050565b60006020820190508181036000830152612c4c8184612875565b905092915050565b60006020820190508181036000830152612c6d816128ae565b9050919050565b60006020820190508181036000830152612c8d816128ee565b9050919050565b60006020820190508181036000830152612cad8161292e565b9050919050565b60006020820190508181036000830152612ccd8161296e565b9050919050565b60006020820190508181036000830152612ced816129d4565b9050919050565b60006020820190508181036000830152612d0d81612a3a565b9050919050565b60006020820190508181036000830152612d2d81612a7a565b9050919050565b60006020820190508181036000830152612d4d81612aba565b9050919050565b60006020820190508181036000830152612d6d81612afa565b9050919050565b6000602082019050612d896000830184612b86565b92915050565b6000604082019050612da46000830185612b86565b612db1602083018461281e565b9392505050565b6000604051905081810181811067ffffffffffffffff82111715612ddb57600080fd5b8060405250919050565b600067ffffffffffffffff821115612dfc57600080fd5b601f19601f8301169050602081019050919050565b600067ffffffffffffffff821115612e2857600080fd5b601f19601f8301169050602081019050919050565b600081519050919050565b600081519050919050565b600082825260208201905092915050565b600082825260208201905092915050565b6000612e8082612ec9565b9050919050565b60008115159050919050565b6000819050919050565b60007fffffffff0000000000000000000000000000000000000000000000000000000082169050919050565b600073ffffffffffffffffffffffffffffffffffffffff82169050919050565b6000819050919050565b6000612efe82612f05565b9050919050565b6000612f1082612f17565b9050919050565b6000612f2282612ec9565b9050919050565b82818337600083830152505050565b60005b83811015612f56578082015181840152602081019050612f3b565b83811115612f65576000848401525b50505050565b6000601f19601f8301169050919050565b612f8581612e75565b8114612f9057600080fd5b50565b612f9c81612e87565b8114612fa757600080fd5b50565b612fb381612e93565b8114612fbe57600080fd5b50565b612fca81612e9d565b8114612fd557600080fd5b50565b612fe181612ee9565b8114612fec57600080fd5b5056fea365627a7a723158206e50df704e314b57f338a02e1668249b1f8f327aca9ae1f16a863436ae8b12676c6578706572696d656e74616cf564736f6c6343000511004068747470733a2f2f73332d75732d776573742d322e616d617a6f6e6177732e636f6d2f756461636974792d626c6f636b636861696e2f63617073746f6e652f",
  "source": "pragma solidity >=0.4.21 <0.6.0;\npragma experimental ABIEncoderV2;\n\nimport './ERC721Mintable.sol';\nimport './Verifier.sol';\n\n// TODO define a contract call to the zokrates generated solidity contract <Verifier> or <renamedVerifier>\n// TODO define another contract named SolnSquareVerifier that inherits from your ERC721Mintable class\ncontract SolnSquareVerifier is CustomERC721Token {\n\n    Verifier private verifier;\n\n    constructor (address verifierContractAddress) public {\n        verifier = Verifier(verifierContractAddress);\n    }\n\n    // TODO define a solutions struct that can hold an index & an address\n    struct Solution {\n        uint256 index;\n        address ownerAddress;\n    }\n\n    uint256 private solutionLength = 0;\n\n    // TODO define an array of the above struct\n    Solution[] private solutions;\n\n    // TODO define a mapping to store unique solutions submitted\n    mapping(bytes32 => Solution) private usedSolutions;\n\n    // TODO Create an event to emit when a solution is added\n    event SolutionAdded(uint256, address); \n\n    // TODO Create a function to add the solutions to the array and emit the event\n    function addSolution(address solutionAddress) public returns(uint256) {\n        solutionLength++;\n\n        Solution memory newSolution = Solution({\n            index: solutionLength,\n            ownerAddress: solutionAddress\n        });\n\n        solutions.push(newSolution);\n\n        emit SolutionAdded(newSolution.index, newSolution.ownerAddress);\n        return solutionLength;\n    } \n\n    // TODO Create a function to mint new NFT only after the solution has been verified\n    //  - make sure the solution is unique (has not been used before)\n    //  - make sure you handle metadata as well as tokenSuplly\n    // function mintNewNFT(address to, uint256 tokenId, Proof proof, uint[2] memory inputs)\n    // public {\n    //     bytes32 key = keccak256(abi.encodePacked(a, b, c, inputs));\n    //     require(usedSolutions[key].index > 0, \"Solution already used.\");\n    //     require(verifier.verifyTx(proof, inputs), \"Verification failed\");\n\n    //     uint256 index = addSolution(to);\n    //     usedSolutions[key] = solutions[index];\n\n    //     mint(to, tokenId);       \n    // }\n\n\n}\n\n\n\n\n\n\n\n\n\n  \n\n\n\n\n\n\n\n\n\n\n\n\n\n\n\n\n\n\n\n\n\n\n\n\n\n\n",
  "sourcePath": "/Users/cesar.agena/Blockchain Nano Degree/capstone/eth-contracts/contracts/SolnSquareVerifier.sol",
  "compiler": {
    "name": "solc",
    "version": "0.5.17+commit.d19bba13.Emscripten.clang"
  },
  "schemaVersion": "3.4.1",
  "updatedAt": "2021-10-17T21:46:22.607Z",
  "devdoc": {
    "methods": {
      "isApprovedForAll(address,address)": {
        "details": "Tells whether an operator is approved by a given owner",
        "params": {
          "operator": "operator address which you want to query the approval of",
          "owner": "owner address which you want to query the approval of"
        },
        "return": "bool whether the given operator is approved by the given owner"
      },
      "setApprovalForAll(address,bool)": {
        "details": "Sets or unsets the approval of a given operator An operator is allowed to transfer all tokens of the sender on their behalf",
        "params": {
          "approved": "representing the status of the approval to be set",
          "to": "operator address to set the approval"
        }
      },
      "supportsInterface(bytes4)": {
        "details": "implement supportsInterface(bytes4) using a lookup table"
      },
      "tokenByIndex(uint256)": {
        "details": "Gets the token ID at a given index of all the tokens in this contract Reverts if the index is greater or equal to the total number of tokens",
        "params": {
          "index": "uint256 representing the index to be accessed of the tokens list"
        },
        "return": "uint256 token ID at the given index of the tokens list"
      },
      "tokenOfOwnerByIndex(address,uint256)": {
        "details": "Gets the token ID at a given index of the tokens list of the requested owner",
        "params": {
          "index": "uint256 representing the index to be accessed of the requested tokens list",
          "owner": "address owning the tokens list to be accessed"
        },
        "return": "uint256 token ID at the given index of the tokens list owned by the requested address"
      },
      "totalSupply()": {
        "details": "Gets the total amount of tokens stored by the contract",
        "return": "uint256 representing the total amount of tokens"
      }
    }
  },
  "userdoc": {
    "methods": {}
  }
}