{
  "contractName": "SolnSquareVerifier",
  "abi": [
    {
      "inputs": [
        {
          "internalType": "address",
          "name": "verifierContractAddress",
          "type": "address"
        }
      ],
      "payable": false,
      "stateMutability": "nonpayable",
      "type": "constructor"
    },
    {
      "anonymous": false,
      "inputs": [
        {
          "indexed": true,
          "internalType": "address",
          "name": "owner",
          "type": "address"
        },
        {
          "indexed": true,
          "internalType": "address",
          "name": "approved",
          "type": "address"
        },
        {
          "indexed": true,
          "internalType": "uint256",
          "name": "tokenId",
          "type": "uint256"
        }
      ],
      "name": "Approval",
      "type": "event"
    },
    {
      "anonymous": false,
      "inputs": [
        {
          "indexed": true,
          "internalType": "address",
          "name": "owner",
          "type": "address"
        },
        {
          "indexed": true,
          "internalType": "address",
          "name": "operator",
          "type": "address"
        },
        {
          "indexed": false,
          "internalType": "bool",
          "name": "approved",
          "type": "bool"
        }
      ],
      "name": "ApprovalForAll",
      "type": "event"
    },
    {
      "anonymous": false,
      "inputs": [
        {
          "indexed": false,
          "internalType": "address",
          "name": "newOwner",
          "type": "address"
        }
      ],
      "name": "OwnershipTransfered",
      "type": "event"
    },
    {
      "anonymous": false,
      "inputs": [
        {
          "indexed": false,
          "internalType": "address",
          "name": "caller",
          "type": "address"
        }
      ],
      "name": "Paused",
      "type": "event"
    },
    {
      "anonymous": false,
      "inputs": [
        {
          "indexed": false,
          "internalType": "uint256",
          "name": "",
          "type": "uint256"
        },
        {
          "indexed": false,
          "internalType": "address",
          "name": "",
          "type": "address"
        }
      ],
      "name": "SolutionAdded",
      "type": "event"
    },
    {
      "anonymous": false,
      "inputs": [
        {
          "indexed": true,
          "internalType": "address",
          "name": "from",
          "type": "address"
        },
        {
          "indexed": true,
          "internalType": "address",
          "name": "to",
          "type": "address"
        },
        {
          "indexed": true,
          "internalType": "uint256",
          "name": "tokenId",
          "type": "uint256"
        }
      ],
      "name": "Transfer",
      "type": "event"
    },
    {
      "anonymous": false,
      "inputs": [
        {
          "indexed": false,
          "internalType": "address",
          "name": "caller",
          "type": "address"
        }
      ],
      "name": "Unpaused",
      "type": "event"
    },
    {
      "constant": false,
      "inputs": [
        {
          "internalType": "bytes32",
          "name": "_myid",
          "type": "bytes32"
        },
        {
          "internalType": "string",
          "name": "_result",
          "type": "string"
        }
      ],
      "name": "__callback",
      "outputs": [],
      "payable": false,
      "stateMutability": "nonpayable",
      "type": "function"
    },
    {
      "constant": false,
      "inputs": [
        {
          "internalType": "bytes32",
          "name": "_myid",
          "type": "bytes32"
        },
        {
          "internalType": "string",
          "name": "_result",
          "type": "string"
        },
        {
          "internalType": "bytes",
          "name": "_proof",
          "type": "bytes"
        }
      ],
      "name": "__callback",
      "outputs": [],
      "payable": false,
      "stateMutability": "nonpayable",
      "type": "function"
    },
    {
      "constant": false,
      "inputs": [
        {
          "internalType": "address",
          "name": "to",
          "type": "address"
        },
        {
          "internalType": "uint256",
          "name": "tokenId",
          "type": "uint256"
        }
      ],
      "name": "approve",
      "outputs": [],
      "payable": false,
      "stateMutability": "nonpayable",
      "type": "function"
    },
    {
      "constant": true,
      "inputs": [
        {
          "internalType": "address",
          "name": "owner",
          "type": "address"
        }
      ],
      "name": "balanceOf",
      "outputs": [
        {
          "internalType": "uint256",
          "name": "",
          "type": "uint256"
        }
      ],
      "payable": false,
      "stateMutability": "view",
      "type": "function"
    },
    {
      "constant": true,
      "inputs": [
        {
          "internalType": "uint256",
          "name": "tokenId",
          "type": "uint256"
        }
      ],
      "name": "getApproved",
      "outputs": [
        {
          "internalType": "address",
          "name": "",
          "type": "address"
        }
      ],
      "payable": false,
      "stateMutability": "view",
      "type": "function"
    },
    {
      "constant": true,
      "inputs": [],
      "name": "getBaseTokenURI",
      "outputs": [
        {
          "internalType": "string",
          "name": "",
          "type": "string"
        }
      ],
      "payable": false,
      "stateMutability": "view",
      "type": "function"
    },
    {
      "constant": true,
      "inputs": [],
      "name": "getName",
      "outputs": [
        {
          "internalType": "string",
          "name": "",
          "type": "string"
        }
      ],
      "payable": false,
      "stateMutability": "view",
      "type": "function"
    },
    {
      "constant": true,
      "inputs": [],
      "name": "getOwner",
      "outputs": [
        {
          "internalType": "address",
          "name": "",
          "type": "address"
        }
      ],
      "payable": false,
      "stateMutability": "view",
      "type": "function"
    },
    {
      "constant": true,
      "inputs": [],
      "name": "getSymbol",
      "outputs": [
        {
          "internalType": "string",
          "name": "",
          "type": "string"
        }
      ],
      "payable": false,
      "stateMutability": "view",
      "type": "function"
    },
    {
      "constant": true,
      "inputs": [
        {
          "internalType": "address",
          "name": "owner",
          "type": "address"
        },
        {
          "internalType": "address",
          "name": "operator",
          "type": "address"
        }
      ],
      "name": "isApprovedForAll",
      "outputs": [
        {
          "internalType": "bool",
          "name": "",
          "type": "bool"
        }
      ],
      "payable": false,
      "stateMutability": "view",
      "type": "function"
    },
    {
      "constant": false,
      "inputs": [
        {
          "internalType": "address",
          "name": "to",
          "type": "address"
        },
        {
          "internalType": "uint256",
          "name": "tokenId",
          "type": "uint256"
        }
      ],
      "name": "mint",
      "outputs": [
        {
          "internalType": "bool",
          "name": "",
          "type": "bool"
        }
      ],
      "payable": false,
      "stateMutability": "nonpayable",
      "type": "function"
    },
    {
      "constant": true,
      "inputs": [
        {
          "internalType": "uint256",
          "name": "tokenId",
          "type": "uint256"
        }
      ],
      "name": "ownerOf",
      "outputs": [
        {
          "internalType": "address",
          "name": "",
          "type": "address"
        }
      ],
      "payable": false,
      "stateMutability": "view",
      "type": "function"
    },
    {
      "constant": false,
      "inputs": [
        {
          "internalType": "address",
          "name": "from",
          "type": "address"
        },
        {
          "internalType": "address",
          "name": "to",
          "type": "address"
        },
        {
          "internalType": "uint256",
          "name": "tokenId",
          "type": "uint256"
        }
      ],
      "name": "safeTransferFrom",
      "outputs": [],
      "payable": false,
      "stateMutability": "nonpayable",
      "type": "function"
    },
    {
      "constant": false,
      "inputs": [
        {
          "internalType": "address",
          "name": "from",
          "type": "address"
        },
        {
          "internalType": "address",
          "name": "to",
          "type": "address"
        },
        {
          "internalType": "uint256",
          "name": "tokenId",
          "type": "uint256"
        },
        {
          "internalType": "bytes",
          "name": "_data",
          "type": "bytes"
        }
      ],
      "name": "safeTransferFrom",
      "outputs": [],
      "payable": false,
      "stateMutability": "nonpayable",
      "type": "function"
    },
    {
      "constant": false,
      "inputs": [
        {
          "internalType": "address",
          "name": "to",
          "type": "address"
        },
        {
          "internalType": "bool",
          "name": "approved",
          "type": "bool"
        }
      ],
      "name": "setApprovalForAll",
      "outputs": [],
      "payable": false,
      "stateMutability": "nonpayable",
      "type": "function"
    },
    {
      "constant": false,
      "inputs": [
        {
          "internalType": "bool",
          "name": "value",
          "type": "bool"
        }
      ],
      "name": "setPause",
      "outputs": [],
      "payable": false,
      "stateMutability": "nonpayable",
      "type": "function"
    },
    {
      "constant": true,
      "inputs": [
        {
          "internalType": "bytes4",
          "name": "interfaceId",
          "type": "bytes4"
        }
      ],
      "name": "supportsInterface",
      "outputs": [
        {
          "internalType": "bool",
          "name": "",
          "type": "bool"
        }
      ],
      "payable": false,
      "stateMutability": "view",
      "type": "function"
    },
    {
      "constant": true,
      "inputs": [
        {
          "internalType": "uint256",
          "name": "index",
          "type": "uint256"
        }
      ],
      "name": "tokenByIndex",
      "outputs": [
        {
          "internalType": "uint256",
          "name": "",
          "type": "uint256"
        }
      ],
      "payable": false,
      "stateMutability": "view",
      "type": "function"
    },
    {
      "constant": true,
      "inputs": [
        {
          "internalType": "address",
          "name": "owner",
          "type": "address"
        },
        {
          "internalType": "uint256",
          "name": "index",
          "type": "uint256"
        }
      ],
      "name": "tokenOfOwnerByIndex",
      "outputs": [
        {
          "internalType": "uint256",
          "name": "",
          "type": "uint256"
        }
      ],
      "payable": false,
      "stateMutability": "view",
      "type": "function"
    },
    {
      "constant": true,
      "inputs": [
        {
          "internalType": "uint256",
          "name": "tokenId",
          "type": "uint256"
        }
      ],
      "name": "tokenURI",
      "outputs": [
        {
          "internalType": "string",
          "name": "",
          "type": "string"
        }
      ],
      "payable": false,
      "stateMutability": "view",
      "type": "function"
    },
    {
      "constant": true,
      "inputs": [],
      "name": "totalSupply",
      "outputs": [
        {
          "internalType": "uint256",
          "name": "",
          "type": "uint256"
        }
      ],
      "payable": false,
      "stateMutability": "view",
      "type": "function"
    },
    {
      "constant": false,
      "inputs": [
        {
          "internalType": "address",
          "name": "from",
          "type": "address"
        },
        {
          "internalType": "address",
          "name": "to",
          "type": "address"
        },
        {
          "internalType": "uint256",
          "name": "tokenId",
          "type": "uint256"
        }
      ],
      "name": "transferFrom",
      "outputs": [],
      "payable": false,
      "stateMutability": "nonpayable",
      "type": "function"
    },
    {
      "constant": false,
      "inputs": [
        {
          "internalType": "address",
          "name": "newOwner",
          "type": "address"
        }
      ],
      "name": "transferOwnership",
      "outputs": [],
      "payable": false,
      "stateMutability": "nonpayable",
      "type": "function"
    },
    {
      "constant": false,
      "inputs": [
        {
          "internalType": "address",
          "name": "solutionAddress",
          "type": "address"
        }
      ],
      "name": "addSolution",
      "outputs": [
        {
          "internalType": "uint256",
          "name": "",
          "type": "uint256"
        }
      ],
      "payable": false,
      "stateMutability": "nonpayable",
      "type": "function"
    },
    {
      "constant": false,
      "inputs": [
        {
          "internalType": "address",
          "name": "to",
          "type": "address"
        },
        {
          "internalType": "uint256",
          "name": "tokenId",
          "type": "uint256"
        },
        {
          "components": [
            {
              "components": [
                {
                  "internalType": "uint256",
                  "name": "X",
                  "type": "uint256"
                },
                {
                  "internalType": "uint256",
                  "name": "Y",
                  "type": "uint256"
                }
              ],
              "internalType": "struct Pairing.G1Point",
              "name": "a",
              "type": "tuple"
            },
            {
              "components": [
                {
                  "internalType": "uint256[2]",
                  "name": "X",
                  "type": "uint256[2]"
                },
                {
                  "internalType": "uint256[2]",
                  "name": "Y",
                  "type": "uint256[2]"
                }
              ],
              "internalType": "struct Pairing.G2Point",
              "name": "b",
              "type": "tuple"
            },
            {
              "components": [
                {
                  "internalType": "uint256",
                  "name": "X",
                  "type": "uint256"
                },
                {
                  "internalType": "uint256",
                  "name": "Y",
                  "type": "uint256"
                }
              ],
              "internalType": "struct Pairing.G1Point",
              "name": "c",
              "type": "tuple"
            }
          ],
          "internalType": "struct Verifier.Proof",
          "name": "proof",
          "type": "tuple"
        },
        {
          "internalType": "uint256[2]",
          "name": "inputs",
          "type": "uint256[2]"
        }
      ],
      "name": "mintNewNFT",
      "outputs": [],
      "payable": false,
      "stateMutability": "nonpayable",
      "type": "function"
    }
  ],
  "bytecode": "0x608060405260006014553480156200001657600080fd5b5060405162003ea538038062003ea583398181016040526200003c9190810190620003d2565b6040518060400160405280600a81526020017f4d494e484f434f494e53000000000000000000000000000000000000000000008152506040518060400160405280600381526020017f4d4e4300000000000000000000000000000000000000000000000000000000008152506040518060600160405280603f815260200162003e66603f9139336000806101000a81548173ffffffffffffffffffffffffffffffffffffffff021916908373ffffffffffffffffffffffffffffffffffffffff1602179055507f9736aeb40a8f30a5c076a9897428fdf7ec0e909c96dce63533664c9b5c835da66000809054906101000a900473ffffffffffffffffffffffffffffffffffffffff166040516200015491906200040f565b60405180910390a160008060146101000a81548160ff0219169083151502179055506200018e6301ffc9a760e01b6200026c60201b60201c565b620001a66380ac58cd60e01b6200026c60201b60201c565b620001be63780e9d6360e01b6200026c60201b60201c565b82600f9080519060200190620001d69291906200030c565b508160109080519060200190620001ef9291906200030c565b508060119080519060200190620002089291906200030c565b5062000221635b5e139f60e01b6200026c60201b60201c565b50505080601360006101000a81548173ffffffffffffffffffffffffffffffffffffffff021916908373ffffffffffffffffffffffffffffffffffffffff160217905550506200047a565b63ffffffff60e01b817bffffffffffffffffffffffffffffffffffffffffffffffffffffffff19161415620002a057600080fd5b6001806000837bffffffffffffffffffffffffffffffffffffffffffffffffffffffff19167bffffffffffffffffffffffffffffffffffffffffffffffffffffffff1916815260200190815260200160002060006101000a81548160ff02191690831515021790555050565b828054600181600116156101000203166002900490600052602060002090601f016020900481019282601f106200034f57805160ff191683800117855562000380565b8280016001018555821562000380579182015b828111156200037f57825182559160200191906001019062000362565b5b5090506200038f919062000393565b5090565b620003b891905b80821115620003b45760008160009055506001016200039a565b5090565b90565b600081519050620003cc8162000460565b92915050565b600060208284031215620003e557600080fd5b6000620003f584828501620003bb565b91505092915050565b62000409816200042c565b82525050565b6000602082019050620004266000830184620003fe565b92915050565b6000620004398262000440565b9050919050565b600073ffffffffffffffffffffffffffffffffffffffff82169050919050565b6200046b816200042c565b81146200047757600080fd5b50565b6139dc806200048a6000396000f3fe608060405234801561001057600080fd5b50600436106101735760003560e01c806342842e0e116100de578063a22cb46511610097578063bedb86fb11610071578063bedb86fb1461046e578063c87b56dd1461048a578063e985e9c5146104ba578063f2fde38b146104ea57610173565b8063a22cb46514610418578063b88d4fde14610434578063bdc32be01461045057610173565b806342842e0e1461031e5780634f6ccce71461033a5780636352211e1461036a57806370a082311461039a578063832e1695146103ca578063893d20e8146103fa57610173565b806323b872dd1161013057806323b872dd1461024e57806327dc297e1461026a5780632f745c591461028657806338bbfa50146102b6578063403d81ae146102d257806340c10f19146102ee57610173565b806301ffc9a714610178578063081812fc146101a8578063095ea7b3146101d857806315070401146101f457806317d7de7c1461021257806318160ddd14610230575b600080fd5b610192600480360361018d9190810190612cbd565b610506565b60405161019f91906134a3565b60405180910390f35b6101c260048036036101bd9190810190612d0f565b61056e565b6040516101cf9190613421565b60405180910390f35b6101f260048036036101ed9190810190612af7565b6105ab565b005b6101fc610794565b60405161020991906134be565b60405180910390f35b61021a610836565b60405161022791906134be565b60405180910390f35b6102386108d8565b604051610245919061366b565b60405180910390f35b610268600480360361026391908101906129f1565b6108e5565b005b610284600480360361027f9190810190612bea565b610908565b005b6102a0600480360361029b9190810190612af7565b61094b565b6040516102ad919061366b565b60405180910390f35b6102d060048036036102cb9190810190612c3e565b6109be565b005b6102ec60048036036102e79190810190612b33565b6109c3565b005b61030860048036036103039190810190612af7565b610c31565b60405161031591906134a3565b60405180910390f35b610338600480360361033391908101906129f1565b610cdf565b005b610354600480360361034f9190810190612d0f565b610cff565b604051610361919061366b565b60405180910390f35b610384600480360361037f9190810190612d0f565b610d33565b6040516103919190613421565b60405180910390f35b6103b460048036036103af919081019061298c565b610d70565b6040516103c1919061366b565b60405180910390f35b6103e460048036036103df919081019061298c565b610dc0565b6040516103f1919061366b565b60405180910390f35b610402610ed9565b60405161040f9190613421565b60405180910390f35b610432600480360361042d9190810190612abb565b610f02565b005b61044e60048036036104499190810190612a40565b611038565b005b61045861105e565b60405161046591906134be565b60405180910390f35b61048860048036036104839190810190612b98565b611100565b005b6104a4600480360361049f9190810190612d0f565b611235565b6040516104b191906134be565b60405180910390f35b6104d460048036036104cf91908101906129b5565b6112fc565b6040516104e191906134a3565b60405180910390f35b61050460048036036104ff919081019061298c565b611390565b005b600060016000837bffffffffffffffffffffffffffffffffffffffffffffffffffffffff19167bffffffffffffffffffffffffffffffffffffffffffffffffffffffff1916815260200190815260200160002060009054906101000a900460ff169050919050565b60006003600083815260200190815260200160002060009054906101000a900473ffffffffffffffffffffffffffffffffffffffff169050919050565b8173ffffffffffffffffffffffffffffffffffffffff163373ffffffffffffffffffffffffffffffffffffffff16141561061a576040517f08c379a000000000000000000000000000000000000000000000000000000000815260040161061190613580565b60405180910390fd5b610622610ed9565b73ffffffffffffffffffffffffffffffffffffffff163373ffffffffffffffffffffffffffffffffffffffff161480610661575061066033836112fc565b5b6106a0576040517f08c379a000000000000000000000000000000000000000000000000000000000815260040161069790613620565b60405180910390fd5b6001600560003373ffffffffffffffffffffffffffffffffffffffff1673ffffffffffffffffffffffffffffffffffffffff16815260200190815260200160002060008473ffffffffffffffffffffffffffffffffffffffff1673ffffffffffffffffffffffffffffffffffffffff16815260200190815260200160002060006101000a81548160ff021916908315150217905550808273ffffffffffffffffffffffffffffffffffffffff163373ffffffffffffffffffffffffffffffffffffffff167f8c5be1e5ebec7d5bd14f71427d1e84f3dd0314c0f7b2291e5b200ac8c7c3b92560405160405180910390a45050565b606060108054600181600116156101000203166002900480601f01602080910402602001604051908101604052809291908181526020018280546001816001161561010002031660029004801561082c5780601f106108015761010080835404028352916020019161082c565b820191906000526020600020905b81548152906001019060200180831161080f57829003601f168201915b5050505050905090565b6060600f8054600181600116156101000203166002900480601f0160208091040260200160405190810160405280929190818152602001828054600181600116156101000203166002900480156108ce5780601f106108a3576101008083540402835291602001916108ce565b820191906000526020600020905b8154815290600101906020018083116108b157829003601f168201915b5050505050905090565b6000600880549050905090565b6108ef3382611509565b6108f857600080fd5b61090383838361159e565b505050565b610947828260006040519080825280601f01601f1916602001820160405280156109415781602001600182028038833980820191505090505b506109be565b5050565b600061095683610d70565b821061096157600080fd5b600660008473ffffffffffffffffffffffffffffffffffffffff1673ffffffffffffffffffffffffffffffffffffffff16815260200190815260200160002082815481106109ab57fe5b9060005260206000200154905092915050565b505050565b600082600001516000015183600001516020015184602001516000015185602001516020015186604001516000015187604001516020015187604051602001610a1297969594939291906133a0565b6040516020818303038152906040528051906020012090506000601660008381526020019081526020016000206000015411610a83576040517f08c379a0000000000000000000000000000000000000000000000000000000008152600401610a7a90613600565b60405180910390fd5b601360009054906101000a900473ffffffffffffffffffffffffffffffffffffffff1673ffffffffffffffffffffffffffffffffffffffff166343cd76fc84846040518363ffffffff1660e01b8152600401610ae0929190613640565b60206040518083038186803b158015610af857600080fd5b505afa158015610b0c573d6000803e3d6000fd5b505050506040513d601f19601f82011682018060405250610b309190810190612bc1565b610b6f576040517f08c379a0000000000000000000000000000000000000000000000000000000008152600401610b6690613540565b60405180910390fd5b6000610b7a86610dc0565b905060158181548110610b8957fe5b906000526020600020906002020160166000848152602001908152602001600020600082015481600001556001820160009054906101000a900473ffffffffffffffffffffffffffffffffffffffff168160010160006101000a81548173ffffffffffffffffffffffffffffffffffffffff021916908373ffffffffffffffffffffffffffffffffffffffff160217905550905050610c288686610c31565b50505050505050565b60008060009054906101000a900473ffffffffffffffffffffffffffffffffffffffff1673ffffffffffffffffffffffffffffffffffffffff163373ffffffffffffffffffffffffffffffffffffffff1614610cc2576040517f08c379a0000000000000000000000000000000000000000000000000000000008152600401610cb9906135c0565b60405180910390fd5b610ccc83836115c2565b610cd5826115e3565b6001905092915050565b610cfa83838360405180602001604052806000815250611038565b505050565b6000610d096108d8565b8210610d1457600080fd5b60088281548110610d2157fe5b90600052602060002001549050919050565b60006002600083815260200190815260200160002060009054906101000a900473ffffffffffffffffffffffffffffffffffffffff169050919050565b6000610db9600460008473ffffffffffffffffffffffffffffffffffffffff1673ffffffffffffffffffffffffffffffffffffffff168152602001908152602001600020611701565b9050919050565b6000601460008154809291906001019190505550610ddc61256f565b604051806040016040528060145481526020018473ffffffffffffffffffffffffffffffffffffffff168152509050601581908060018154018082558091505090600182039060005260206000209060020201600090919290919091506000820151816000015560208201518160010160006101000a81548173ffffffffffffffffffffffffffffffffffffffff021916908373ffffffffffffffffffffffffffffffffffffffff1602179055505050507f078793128cefb19aac38a33f9e5df39f67716907f6d747e8065545699e0b2b8d81600001518260200151604051610ec6929190613686565b60405180910390a1601454915050919050565b60008060009054906101000a900473ffffffffffffffffffffffffffffffffffffffff16905090565b3373ffffffffffffffffffffffffffffffffffffffff168273ffffffffffffffffffffffffffffffffffffffff161415610f3b57600080fd5b80600560003373ffffffffffffffffffffffffffffffffffffffff1673ffffffffffffffffffffffffffffffffffffffff16815260200190815260200160002060008473ffffffffffffffffffffffffffffffffffffffff1673ffffffffffffffffffffffffffffffffffffffff16815260200190815260200160002060006101000a81548160ff0219169083151502179055508173ffffffffffffffffffffffffffffffffffffffff163373ffffffffffffffffffffffffffffffffffffffff167f17307eab39ab6107e8899845ad3d59bd9653f200f220920489ca2b5937696c318360405161102c91906134a3565b60405180910390a35050565b6110438484846108e5565b61104f8484848461170f565b61105857600080fd5b50505050565b606060118054600181600116156101000203166002900480601f0160208091040260200160405190810160405280929190818152602001828054600181600116156101000203166002900480156110f65780601f106110cb576101008083540402835291602001916110f6565b820191906000526020600020905b8154815290600101906020018083116110d957829003601f168201915b5050505050905090565b6000809054906101000a900473ffffffffffffffffffffffffffffffffffffffff1673ffffffffffffffffffffffffffffffffffffffff163373ffffffffffffffffffffffffffffffffffffffff161461118f576040517f08c379a0000000000000000000000000000000000000000000000000000000008152600401611186906135c0565b60405180910390fd5b80600060146101000a81548160ff021916908315150217905550600060149054906101000a900460ff16156111fa577f62e78cea01bee320cd4e420270b5ea74000d11b0c9f74754ebdbfc544b05a258336040516111ed919061343c565b60405180910390a1611232565b7f5db9ee0a495bf2e6ff9c91a7834c1ba4fdd244a5e8aa4e537bd38aeae4b073aa33604051611229919061343c565b60405180910390a15b50565b606061124082611826565b61124957600080fd5b601260008381526020019081526020016000208054600181600116156101000203166002900480601f0160208091040260200160405190810160405280929190818152602001828054600181600116156101000203166002900480156112f05780601f106112c5576101008083540402835291602001916112f0565b820191906000526020600020905b8154815290600101906020018083116112d357829003601f168201915b50505050509050919050565b6000600560008473ffffffffffffffffffffffffffffffffffffffff1673ffffffffffffffffffffffffffffffffffffffff16815260200190815260200160002060008373ffffffffffffffffffffffffffffffffffffffff1673ffffffffffffffffffffffffffffffffffffffff16815260200190815260200160002060009054906101000a900460ff16905092915050565b6000809054906101000a900473ffffffffffffffffffffffffffffffffffffffff1673ffffffffffffffffffffffffffffffffffffffff163373ffffffffffffffffffffffffffffffffffffffff161461141f576040517f08c379a0000000000000000000000000000000000000000000000000000000008152600401611416906135c0565b60405180910390fd5b600073ffffffffffffffffffffffffffffffffffffffff163373ffffffffffffffffffffffffffffffffffffffff16141561148f576040517f08c379a000000000000000000000000000000000000000000000000000000000815260040161148690613500565b60405180910390fd5b806000806101000a81548173ffffffffffffffffffffffffffffffffffffffff021916908373ffffffffffffffffffffffffffffffffffffffff1602179055507f9736aeb40a8f30a5c076a9897428fdf7ec0e909c96dce63533664c9b5c835da6816040516114fe9190613421565b60405180910390a150565b60008061151583610d33565b90508073ffffffffffffffffffffffffffffffffffffffff168473ffffffffffffffffffffffffffffffffffffffff16148061158457508373ffffffffffffffffffffffffffffffffffffffff1661156c8461056e565b73ffffffffffffffffffffffffffffffffffffffff16145b80611595575061159481856112fc565b5b91505092915050565b6115a9838383611898565b6115b38382611af2565b6115bd8282611c90565b505050565b6115cc8282611d57565b6115d68282611c90565b6115df81611f09565b5050565b6115ec81611826565b61162b576040517f08c379a0000000000000000000000000000000000000000000000000000000008152600401611622906135e0565b60405180910390fd5b6116d760118054600181600116156101000203166002900480601f0160208091040260200160405190810160405280929190818152602001828054600181600116156101000203166002900480156116c45780601f10611699576101008083540402835291602001916116c4565b820191906000526020600020905b8154815290600101906020018083116116a757829003601f168201915b50505050506116d283611f55565b612082565b6012600083815260200190815260200160002090805190602001906116fd92919061259f565b5050565b600081600001549050919050565b60006117308473ffffffffffffffffffffffffffffffffffffffff166120c6565b61173d576001905061181e565b60008473ffffffffffffffffffffffffffffffffffffffff1663150b7a02338887876040518563ffffffff1660e01b815260040161177e9493929190613457565b602060405180830381600087803b15801561179857600080fd5b505af11580156117ac573d6000803e3d6000fd5b505050506040513d601f19601f820116820180604052506117d09190810190612ce6565b905063150b7a0260e01b7bffffffffffffffffffffffffffffffffffffffffffffffffffffffff1916817bffffffffffffffffffffffffffffffffffffffffffffffffffffffff1916149150505b949350505050565b6000806002600084815260200190815260200160002060009054906101000a900473ffffffffffffffffffffffffffffffffffffffff169050600073ffffffffffffffffffffffffffffffffffffffff168173ffffffffffffffffffffffffffffffffffffffff161415915050919050565b8273ffffffffffffffffffffffffffffffffffffffff166002600083815260200190815260200160002060009054906101000a900473ffffffffffffffffffffffffffffffffffffffff1673ffffffffffffffffffffffffffffffffffffffff1614611939576040517f08c379a000000000000000000000000000000000000000000000000000000000815260040161193090613560565b60405180910390fd5b600073ffffffffffffffffffffffffffffffffffffffff168273ffffffffffffffffffffffffffffffffffffffff1614156119a9576040517f08c379a00000000000000000000000000000000000000000000000000000000081526004016119a0906135a0565b60405180910390fd5b6119b281612111565b816002600083815260200190815260200160002060006101000a81548173ffffffffffffffffffffffffffffffffffffffff021916908373ffffffffffffffffffffffffffffffffffffffff160217905550611a4b600460008573ffffffffffffffffffffffffffffffffffffffff1673ffffffffffffffffffffffffffffffffffffffff1681526020019081526020016000206121cf565b611a92600460008473ffffffffffffffffffffffffffffffffffffffff1673ffffffffffffffffffffffffffffffffffffffff1681526020019081526020016000206121f2565b808273ffffffffffffffffffffffffffffffffffffffff168473ffffffffffffffffffffffffffffffffffffffff167fddf252ad1be2c89b69c2b068fc378daa952ba7f163c4a11628f55a4df523b3ef60405160405180910390a4505050565b6000611b4a6001600660008673ffffffffffffffffffffffffffffffffffffffff1673ffffffffffffffffffffffffffffffffffffffff1681526020019081526020016000208054905061220890919063ffffffff16565b9050600060076000848152602001908152602001600020549050818114611c37576000600660008673ffffffffffffffffffffffffffffffffffffffff1673ffffffffffffffffffffffffffffffffffffffff1681526020019081526020016000208381548110611bb757fe5b9060005260206000200154905080600660008773ffffffffffffffffffffffffffffffffffffffff1673ffffffffffffffffffffffffffffffffffffffff1681526020019081526020016000208381548110611c0f57fe5b9060005260206000200181905550816007600083815260200190815260200160002081905550505b600660008573ffffffffffffffffffffffffffffffffffffffff1673ffffffffffffffffffffffffffffffffffffffff168152602001908152602001600020805480919060019003611c89919061261f565b5050505050565b600660008373ffffffffffffffffffffffffffffffffffffffff1673ffffffffffffffffffffffffffffffffffffffff168152602001908152602001600020805490506007600083815260200190815260200160002081905550600660008373ffffffffffffffffffffffffffffffffffffffff1673ffffffffffffffffffffffffffffffffffffffff1681526020019081526020016000208190806001815401808255809150509060018203906000526020600020016000909192909190915055505050565b611d6081611826565b15611da0576040517f08c379a0000000000000000000000000000000000000000000000000000000008152600401611d9790613520565b60405180910390fd5b600073ffffffffffffffffffffffffffffffffffffffff168273ffffffffffffffffffffffffffffffffffffffff161415611e10576040517f08c379a0000000000000000000000000000000000000000000000000000000008152600401611e07906134e0565b60405180910390fd5b816002600083815260200190815260200160002060006101000a81548173ffffffffffffffffffffffffffffffffffffffff021916908373ffffffffffffffffffffffffffffffffffffffff160217905550611ea9600460008473ffffffffffffffffffffffffffffffffffffffff1673ffffffffffffffffffffffffffffffffffffffff1681526020019081526020016000206121f2565b808273ffffffffffffffffffffffffffffffffffffffff16600073ffffffffffffffffffffffffffffffffffffffff167fddf252ad1be2c89b69c2b068fc378daa952ba7f163c4a11628f55a4df523b3ef60405160405180910390a45050565b6008805490506009600083815260200190815260200160002081905550600881908060018154018082558091505090600182039060005260206000200160009091929091909150555050565b60606000821415611f9d576040518060400160405280600181526020017f3000000000000000000000000000000000000000000000000000000000000000815250905061207d565b600082905060005b60008214611fc7578080600101915050600a8281611fbf57fe5b049150611fa5565b6060816040519080825280601f01601f191660200182016040528015611ffc5781602001600182028038833980820191505090505b50905060006001830390505b6000861461207557600a868161201a57fe5b0660300160f81b8282806001900393508151811061203457fe5b60200101907effffffffffffffffffffffffffffffffffffffffffffffffffffffffffffff1916908160001a905350600a868161206d57fe5b049550612008565b819450505050505b919050565b60606120be8383604051806020016040528060008152506040518060200160405280600081525060405180602001604052806000815250612252565b905092915050565b60008060007fc5d2460186f7233c927e7db2dcc703c0e500b653ca82273b7bfad8045d85a47060001b9050833f915080821415801561210857506000801b8214155b92505050919050565b600073ffffffffffffffffffffffffffffffffffffffff166003600083815260200190815260200160002060009054906101000a900473ffffffffffffffffffffffffffffffffffffffff1673ffffffffffffffffffffffffffffffffffffffff16146121cc5760006003600083815260200190815260200160002060006101000a81548173ffffffffffffffffffffffffffffffffffffffff021916908373ffffffffffffffffffffffffffffffffffffffff1602179055505b50565b6121e76001826000015461220890919063ffffffff16565b816000018190555050565b6001816000016000828254019250508190555050565b600061224a83836040518060400160405280601e81526020017f536166654d6174683a207375627472616374696f6e206f766572666c6f770000815250612514565b905092915050565b6060808690506060869050606086905060608690506060869050606081518351855187518951010101016040519080825280601f01601f1916602001820160405280156122ae5781602001600182028038833980820191505090505b509050606081905060008090506000809050600090505b8851811015612333578881815181106122da57fe5b602001015160f81c60f81b8383806001019450815181106122f757fe5b60200101907effffffffffffffffffffffffffffffffffffffffffffffffffffffffffffff1916908160001a90535080806001019150506122c5565b600090505b87518110156123a65787818151811061234d57fe5b602001015160f81c60f81b83838060010194508151811061236a57fe5b60200101907effffffffffffffffffffffffffffffffffffffffffffffffffffffffffffff1916908160001a9053508080600101915050612338565b600090505b8651811015612419578681815181106123c057fe5b602001015160f81c60f81b8383806001019450815181106123dd57fe5b60200101907effffffffffffffffffffffffffffffffffffffffffffffffffffffffffffff1916908160001a90535080806001019150506123ab565b600090505b855181101561248c5785818151811061243357fe5b602001015160f81c60f81b83838060010194508151811061245057fe5b60200101907effffffffffffffffffffffffffffffffffffffffffffffffffffffffffffff1916908160001a905350808060010191505061241e565b600090505b84518110156124ff578481815181106124a657fe5b602001015160f81c60f81b8383806001019450815181106124c357fe5b60200101907effffffffffffffffffffffffffffffffffffffffffffffffffffffffffffff1916908160001a9053508080600101915050612491565b82995050505050505050505095945050505050565b600083831115829061255c576040517f08c379a000000000000000000000000000000000000000000000000000000000815260040161255391906134be565b60405180910390fd5b5060008385039050809150509392505050565b604051806040016040528060008152602001600073ffffffffffffffffffffffffffffffffffffffff1681525090565b828054600181600116156101000203166002900490600052602060002090601f016020900481019282601f106125e057805160ff191683800117855561260e565b8280016001018555821561260e579182015b8281111561260d5782518255916020019190600101906125f2565b5b50905061261b919061264b565b5090565b81548183558181111561264657818360005260206000209182019101612645919061264b565b5b505050565b61266d91905b80821115612669576000816000905550600101612651565b5090565b90565b60008135905061267f81613926565b92915050565b600082601f83011261269657600080fd5b60026126a96126a4826136dc565b6136af565b915081838560208402820111156126bf57600080fd5b60005b838110156126ef57816126d58882612977565b8452602084019350602083019250506001810190506126c2565b5050505092915050565b600082601f83011261270a57600080fd5b600261271d612718826136fe565b6136af565b9150818385602084028201111561273357600080fd5b60005b8381101561276357816127498882612977565b845260208401935060208301925050600181019050612736565b5050505092915050565b60008135905061277c8161393d565b92915050565b6000815190506127918161393d565b92915050565b6000813590506127a681613954565b92915050565b6000813590506127bb8161396b565b92915050565b6000815190506127d08161396b565b92915050565b600082601f8301126127e757600080fd5b81356127fa6127f582613720565b6136af565b9150808252602083016020830185838301111561281657600080fd5b6128218382846138c9565b50505092915050565b600082601f83011261283b57600080fd5b813561284e6128498261374c565b6136af565b9150808252602083016020830185838301111561286a57600080fd5b6128758382846138c9565b50505092915050565b60006040828403121561289057600080fd5b61289a60406136af565b905060006128aa84828501612977565b60008301525060206128be84828501612977565b60208301525092915050565b6000608082840312156128dc57600080fd5b6128e660406136af565b905060006128f684828501612685565b600083015250604061290a84828501612685565b60208301525092915050565b6000610100828403121561292957600080fd5b61293360606136af565b905060006129438482850161287e565b6000830152506040612957848285016128ca565b60208301525060c061296b8482850161287e565b60408301525092915050565b60008135905061298681613982565b92915050565b60006020828403121561299e57600080fd5b60006129ac84828501612670565b91505092915050565b600080604083850312156129c857600080fd5b60006129d685828601612670565b92505060206129e785828601612670565b9150509250929050565b600080600060608486031215612a0657600080fd5b6000612a1486828701612670565b9350506020612a2586828701612670565b9250506040612a3686828701612977565b9150509250925092565b60008060008060808587031215612a5657600080fd5b6000612a6487828801612670565b9450506020612a7587828801612670565b9350506040612a8687828801612977565b925050606085013567ffffffffffffffff811115612aa357600080fd5b612aaf878288016127d6565b91505092959194509250565b60008060408385031215612ace57600080fd5b6000612adc85828601612670565b9250506020612aed8582860161276d565b9150509250929050565b60008060408385031215612b0a57600080fd5b6000612b1885828601612670565b9250506020612b2985828601612977565b9150509250929050565b6000806000806101808587031215612b4a57600080fd5b6000612b5887828801612670565b9450506020612b6987828801612977565b9350506040612b7a87828801612916565b925050610140612b8c878288016126f9565b91505092959194509250565b600060208284031215612baa57600080fd5b6000612bb88482850161276d565b91505092915050565b600060208284031215612bd357600080fd5b6000612be184828501612782565b91505092915050565b60008060408385031215612bfd57600080fd5b6000612c0b85828601612797565b925050602083013567ffffffffffffffff811115612c2857600080fd5b612c348582860161282a565b9150509250929050565b600080600060608486031215612c5357600080fd5b6000612c6186828701612797565b935050602084013567ffffffffffffffff811115612c7e57600080fd5b612c8a8682870161282a565b925050604084013567ffffffffffffffff811115612ca757600080fd5b612cb3868287016127d6565b9150509250925092565b600060208284031215612ccf57600080fd5b6000612cdd848285016127ac565b91505092915050565b600060208284031215612cf857600080fd5b6000612d06848285016127c1565b91505092915050565b600060208284031215612d2157600080fd5b6000612d2f84828501612977565b91505092915050565b6000612d44838361335c565b60208301905092915050565b6000612d5c838361337a565b60208301905092915050565b612d7181613893565b82525050565b612d8081613815565b82525050565b612d8f81613797565b612d9981846137dd565b9250612da482613782565b8060005b83811015612dd5578151612dbc8782612d38565b9650612dc7836137c5565b925050600181019050612da8565b505050505050565b612de681613797565b612df081846137e8565b9250612dfb82613782565b8060005b83811015612e2c578151612e138782612d50565b9650612e1e836137c5565b925050600181019050612dff565b505050505050565b612e3d8161378c565b612e4781846137d2565b9250612e5282613778565b8060005b83811015612e83578151612e6a8782612d38565b9650612e75836137b8565b925050600181019050612e56565b505050505050565b612e948161378c565b612e9e81846137e8565b9250612ea982613778565b8060005b83811015612eda578151612ec18782612d50565b9650612ecc836137b8565b925050600181019050612ead565b505050505050565b612eeb81613827565b82525050565b6000612efc826137a2565b612f0681856137f3565b9350612f168185602086016138d8565b612f1f81613915565b840191505092915050565b6000612f35826137ad565b612f3f8185613804565b9350612f4f8185602086016138d8565b612f5881613915565b840191505092915050565b6000612f70600f83613804565b91507f496e76616c6964206164647265737300000000000000000000000000000000006000830152602082019050919050565b6000612fb0601b83613804565b91507f43616c6c65722061646472657373206d757374206265207265616c00000000006000830152602082019050919050565b6000612ff0601483613804565b91507f546f6b656e20616c7265616479206578697374730000000000000000000000006000830152602082019050919050565b6000613030601383613804565b91507f566572696669636174696f6e206661696c6564000000000000000000000000006000830152602082019050919050565b6000613070602583613804565b91507f546f6b656e20646f6573206e6f742062656c6f6e6720746f2066726f6d20616460008301527f64726573730000000000000000000000000000000000000000000000000000006020830152604082019050919050565b60006130d6602b83613804565b91507f446f206e6f74206e65656420746f2067697665207065726d697373696f6e206660008301527f6f72207468656d73656c660000000000000000000000000000000000000000006020830152604082019050919050565b600061313c601583613804565b91507f4164647265737320746f20697320696e76616c696400000000000000000000006000830152602082019050919050565b600061317c601c83613804565b91507f43616c6c6572206973206e6f7420636f6e7472616374206f776e6572000000006000830152602082019050919050565b60006131bc601683613804565b91507f546f6b656e496420646f6573206e6f74206578697374000000000000000000006000830152602082019050919050565b60006131fc601683613804565b91507f536f6c7574696f6e20616c726561647920757365642e000000000000000000006000830152602082019050919050565b600061323c604a83613804565b91507f53656e646572206973206e6f742074686520636f6e7472616374206f776e657260008301527f20616e64206f70657261746f72206973417070726f766564466f72416c6c206960208301527f73206e6f742074727565000000000000000000000000000000000000000000006040830152606082019050919050565b6040820160008201516132d1600085018261335c565b5060208201516132e4602085018261335c565b50505050565b6080820160008201516133006000850182612e34565b5060208201516133136040850182612e34565b50505050565b6101008201600082015161333060008501826132bb565b50602082015161334360408501826132ea565b50604082015161335660c08501826132bb565b50505050565b61336581613889565b82525050565b61337481613889565b82525050565b61338381613889565b82525050565b61339a61339582613889565b61390b565b82525050565b60006133ac828a613389565b6020820191506133bc8289613389565b6020820191506133cc8288612e8b565b6040820191506133dc8287612e8b565b6040820191506133ec8286613389565b6020820191506133fc8285613389565b60208201915061340c8284612ddd565b60408201915081905098975050505050505050565b60006020820190506134366000830184612d77565b92915050565b60006020820190506134516000830184612d68565b92915050565b600060808201905061346c6000830187612d68565b6134796020830186612d77565b613486604083018561336b565b81810360608301526134988184612ef1565b905095945050505050565b60006020820190506134b86000830184612ee2565b92915050565b600060208201905081810360008301526134d88184612f2a565b905092915050565b600060208201905081810360008301526134f981612f63565b9050919050565b6000602082019050818103600083015261351981612fa3565b9050919050565b6000602082019050818103600083015261353981612fe3565b9050919050565b6000602082019050818103600083015261355981613023565b9050919050565b6000602082019050818103600083015261357981613063565b9050919050565b60006020820190508181036000830152613599816130c9565b9050919050565b600060208201905081810360008301526135b98161312f565b9050919050565b600060208201905081810360008301526135d98161316f565b9050919050565b600060208201905081810360008301526135f9816131af565b9050919050565b60006020820190508181036000830152613619816131ef565b9050919050565b600060208201905081810360008301526136398161322f565b9050919050565b6000610140820190506136566000830185613319565b613664610100830184612d86565b9392505050565b6000602082019050613680600083018461336b565b92915050565b600060408201905061369b600083018561336b565b6136a86020830184612d77565b9392505050565b6000604051905081810181811067ffffffffffffffff821117156136d257600080fd5b8060405250919050565b600067ffffffffffffffff8211156136f357600080fd5b602082029050919050565b600067ffffffffffffffff82111561371557600080fd5b602082029050919050565b600067ffffffffffffffff82111561373757600080fd5b601f19601f8301169050602081019050919050565b600067ffffffffffffffff82111561376357600080fd5b601f19601f8301169050602081019050919050565b6000819050919050565b6000819050919050565b600060029050919050565b600060029050919050565b600081519050919050565b600081519050919050565b6000602082019050919050565b6000602082019050919050565b600081905092915050565b600081905092915050565b600081905092915050565b600082825260208201905092915050565b600082825260208201905092915050565b600061382082613869565b9050919050565b60008115159050919050565b6000819050919050565b60007fffffffff0000000000000000000000000000000000000000000000000000000082169050919050565b600073ffffffffffffffffffffffffffffffffffffffff82169050919050565b6000819050919050565b600061389e826138a5565b9050919050565b60006138b0826138b7565b9050919050565b60006138c282613869565b9050919050565b82818337600083830152505050565b60005b838110156138f65780820151818401526020810190506138db565b83811115613905576000848401525b50505050565b6000819050919050565b6000601f19601f8301169050919050565b61392f81613815565b811461393a57600080fd5b50565b61394681613827565b811461395157600080fd5b50565b61395d81613833565b811461396857600080fd5b50565b6139748161383d565b811461397f57600080fd5b50565b61398b81613889565b811461399657600080fd5b5056fea365627a7a723158206e066567ab2fb9624cf8c7e77e326ab573f5f1a4412facb3551fc400796ad2086c6578706572696d656e74616cf564736f6c6343000511004068747470733a2f2f73332d75732d776573742d322e616d617a6f6e6177732e636f6d2f756461636974792d626c6f636b636861696e2f63617073746f6e652f",
  "source": "pragma solidity >=0.4.21 <0.6.0;\npragma experimental ABIEncoderV2;\n\nimport './ERC721Mintable.sol';\nimport './Verifier.sol';\n\n// TODO define a contract call to the zokrates generated solidity contract <Verifier> or <renamedVerifier>\n// TODO define another contract named SolnSquareVerifier that inherits from your ERC721Mintable class\ncontract SolnSquareVerifier is CustomERC721Token {\n\n    Verifier private verifier;\n\n    constructor (address verifierContractAddress) public {\n        verifier = Verifier(verifierContractAddress);\n    }\n\n    // TODO define a solutions struct that can hold an index & an address\n    struct Solution {\n        uint256 index;\n        address ownerAddress;\n    }\n\n    uint256 private solutionLength = 0;\n\n    // TODO define an array of the above struct\n    Solution[] private solutions;\n\n    // TODO define a mapping to store unique solutions submitted\n    mapping(bytes32 => Solution) private usedSolutions;\n\n    // TODO Create an event to emit when a solution is added\n    event SolutionAdded(uint256, address); \n\n    // TODO Create a function to add the solutions to the array and emit the event\n    function addSolution(address solutionAddress) public returns(uint256) {\n        solutionLength++;\n\n        Solution memory newSolution = Solution({\n            index: solutionLength,\n            ownerAddress: solutionAddress\n        });\n\n        solutions.push(newSolution);\n\n        emit SolutionAdded(newSolution.index, newSolution.ownerAddress);\n        return solutionLength;\n    } \n\n    // TODO Create a function to mint new NFT only after the solution has been verified\n    //  - make sure the solution is unique (has not been used before)\n    //  - make sure you handle metadata as well as tokenSuplly\n    function mintNewNFT(address to, uint256 tokenId, Verifier.Proof memory proof, uint[2] memory inputs)\n    public {\n        bytes32 key = keccak256(abi.encodePacked(proof.a.X, proof.a.Y, proof.b.X, proof.b.Y, proof.c.X, proof.c.Y, inputs));\n        require(usedSolutions[key].index > 0, \"Solution already used.\");\n        require(verifier.verifyTx(proof, inputs), \"Verification failed\");\n\n        uint256 index = addSolution(to);\n        usedSolutions[key] = solutions[index];\n\n        mint(to, tokenId);       \n    }\n\n\n}\n\n\n\n\n\n\n\n\n\n  \n\n\n\n\n\n\n\n\n\n\n\n\n\n\n\n\n\n\n\n\n\n\n\n\n\n\n",
  "sourcePath": "/Users/cesar.agena/Blockchain Nano Degree/capstone/eth-contracts/contracts/SolnSquareVerifier.sol",
  "compiler": {
    "name": "solc",
    "version": "0.5.17+commit.d19bba13.Emscripten.clang"
  },
  "schemaVersion": "3.4.1",
  "updatedAt": "2021-10-18T21:46:16.268Z",
  "devdoc": {
    "methods": {
      "isApprovedForAll(address,address)": {
        "details": "Tells whether an operator is approved by a given owner",
        "params": {
          "operator": "operator address which you want to query the approval of",
          "owner": "owner address which you want to query the approval of"
        },
        "return": "bool whether the given operator is approved by the given owner"
      },
      "setApprovalForAll(address,bool)": {
        "details": "Sets or unsets the approval of a given operator An operator is allowed to transfer all tokens of the sender on their behalf",
        "params": {
          "approved": "representing the status of the approval to be set",
          "to": "operator address to set the approval"
        }
      },
      "supportsInterface(bytes4)": {
        "details": "implement supportsInterface(bytes4) using a lookup table"
      },
      "tokenByIndex(uint256)": {
        "details": "Gets the token ID at a given index of all the tokens in this contract Reverts if the index is greater or equal to the total number of tokens",
        "params": {
          "index": "uint256 representing the index to be accessed of the tokens list"
        },
        "return": "uint256 token ID at the given index of the tokens list"
      },
      "tokenOfOwnerByIndex(address,uint256)": {
        "details": "Gets the token ID at a given index of the tokens list of the requested owner",
        "params": {
          "index": "uint256 representing the index to be accessed of the requested tokens list",
          "owner": "address owning the tokens list to be accessed"
        },
        "return": "uint256 token ID at the given index of the tokens list owned by the requested address"
      },
      "totalSupply()": {
        "details": "Gets the total amount of tokens stored by the contract",
        "return": "uint256 representing the total amount of tokens"
      }
    }
  },
  "userdoc": {
    "methods": {}
  }
}